:020000040800F2
:10000000801A002045010008510E0008530E000818
:10001000570E00085B0E00085F0E0008000000008D
:10002000000000000000000000000000630E000857
:10003000650E000800000000670E0008690E000849
:100040005F0100085F0100085F0100085F01000810
:100050005F0100085F0100085F0100085F01000800
:100060005F0100085F0100085F0100085F010008F0
:100070005F0100085F0100085F0100085F010008E0
:100080005F0100085F0100085F0100085F010008D0
:100090005F0100085F0100085F0100085F010008C0
:1000A0005F0100085F0100085F0100085F010008B0
:1000B0005F0100085F0100085F0100085F010008A0
:1000C0005F0100085F0100085F0100085F01000890
:1000D0005F0100085F0100085F0100085F01000880
:1000E0005F0100085F0100085F0100085F01000870
:1000F0005F0100085F0100085F0100085F01000860
:100100005F0100085F0100085F0100085F0100084F
:100110005F0100085F0100085F0100085F0100083F
:100120005F0100085F0100085F0100085F0100082F
:10013000DFF80CD002F0D2F900480047E5180008BB
:10014000801A00200648804706480047FEE7FEE781
:10015000FEE7FEE7FEE7FEE7FEE7FEE7FEE7FEE777
:1001600047020008310100080CB500200190009002
:100170006C48006840F480306A49086000BF6948F4
:10018000006800F4003000900198401C0190009835
:1001900018B90198B0F5A06FF1D16248006800F479
:1001A000003010B10120009001E000200090009884
:1001B000012843D15C48006840F010005A490860AB
:1001C0000846006820F0030008600846006840F018
:1001D0000200086053484068524948600846406839
:1001E00048600846406840F48060486008464068BF
:1001F00020F47C1048600846406840F4E8104860ED
:100200000846006840F08070086000BF45480068FC
:1002100000F000700028F9D04248406820F0030048
:10022000404948600846406840F00200486000BF0E
:100230003C48406800F00C000828F9D10CBD10B50E
:10024000FFF792FF10BD10B53648006840F001007E
:1002500034490860084640683449084031494860DC
:1002600008460068324908402E4908600846006880
:1002700020F4802008600846406820F4FE004860B2
:100280004FF41F008860FFF7DAFF4FF00060294944
:10029000086010BD10B5002100200022214B5B68D2
:1002A00003F00C0121B1042906D0082928D107E068
:1002B000214B224C236027E01F4B204C236023E07E
:1002C000184B5B6803F47010164B5B6803F48032C4
:1002D000022303EB904022B9194B4343174C236090
:1002E0000DE0104B5B6803F4003323B1144B434320
:1002F000124C236003E0104B4343104C236003E097
:100300000D4B0E4C236000BF00BF064B5B68C3F370
:1003100003130C4CE15C094B1B68CB40074C23607A
:1003200010BD000000100240002002400000FFF855
:10033000FFFFF6FE08ED00E000127A00000000204A
:1003400000093D000400002010B50446CC4884425A
:1003500008D10121042000F02DFB0021042000F031
:1003600029FB46E0C748844208D10121082000F05B
:1003700021FB0021082000F01DFB3AE0C248844226
:1003800008D10121102000F015FB0021102000F001
:1003900011FB2EE0BD48844208D10121202000F04D
:1003A00009FB0021202000F005FB22E0B848844230
:1003B00008D10121402000F0FDFA0021402000F08A
:1003C000F9FA16E0B348844208D10121802000F0F8
:1003D000F1FA0021802000F0EDFA0AE0AE488442F4
:1003E00007D10121801500F0E5FA0021A01500F0E9
:1003F000E1FA10BD10B50121084600F0DBFA00213A
:10040000012000F0D7FA10BD2DE9F0410246002589
:100410000026002000230024002791F803C00CF0E0
:100420000F0591F803C00CF0100CBCF1000F03D0C5
:1004300091F802C04CEA050591F800C0BCF1000F2C
:1004400031D0146800202BE04FF0010C0CFA00F3BF
:10045000B1F800C00CEA03069E4220D183004FF0A1
:100460000F0C0CFA03F7BC4305FA03FC4CEA040436
:1004700091F803C0BCF1280F06D14FF0010C0CFA23
:1004800000FCC2F814C00AE091F803C0BCF1480FA8
:1004900005D14FF0010C0CFA00FCC2F810C0401C52
:1004A0000828D1D31460B1F800C0BCF1FF0F34DDCF
:1004B000546800202EE000F1080C4FF0010808FA03
:1004C0000CF3B1F800C00CEA03069E4221D1830070
:1004D0004FF00F0C0CFA03F7BC4305FA03FC4CEA8F
:1004E000040491F803C0BCF1280F05D100F1080CF9
:1004F00008FA0CF8C2F8148091F803C0BCF1480F58
:1005000007D100F1080C4FF0010808FA0CF8C2F806
:100510001080401C0828CED35460BDE8F0814FF60F
:10052000FF710180022181700421C1707047024671
:10053000002093680B400BB1012000E000207047C1
:100540000146886880B2704702460020D3680B409D
:100550000BB1012000E0002070470146C86880B25E
:10056000704701617047416170470AB1016100E065
:1005700041617047C16070474FF480320A43826125
:100580008161826182698269704702460020434B23
:1005900018684FF68073184040EA021008433F4B3A
:1005A000186070473E49C8617047F0B50A4600239D
:1005B00000240021002500F00046B6F1004F02D1D2
:1005C000364EF16901E0354E7168C0F3034583B2E0
:1005D00000F44016B6F5401F08D121F070612F4E8F
:1005E000766826F070662D4F7E6012E000F480166B
:1005F000B6F5801F06D1032606FA05F4A14341F0A3
:10060000706106E0460D360103FA06F6B14341F08B
:10061000706122B1460D360103FA06F6314300F04F
:100620000046B6F1004F02D11C4EF16101E01B4EB5
:100630007160F0BD30B500228B071C0F0F2303FA49
:1006400004F2164B08338C1053F824309343134CA8
:1006500008348D1044F8253023468C1053F824308C
:100660008C07240F00FA04F423430C4C08348D103B
:1006700044F8253030BD0A49DC310860704700007D
:1006800000080140000C014000100140001401402E
:1006900000180140001C0140002001400000014002
:1006A00000002042DF48006840F00100DD4908609A
:1006B00008464068DC490840DA4948600846006856
:1006C000DA490840D74908600846006820F48020CD
:1006D00008600846406820F4FE0048604FF41F00A0
:1006E00088607047CF49096821F48031CD4A116094
:1006F0001146096821F480211160B0F5803F03D0D4
:10070000B0F5802F0ED106E0C649096841F480316A
:10071000C44A116007E0C349096841F4A021C14AF5
:10072000116000E000BF00BF704710B50146002215
:10073000002300204A11012A02D1BA4C236806E0A6
:10074000022A02D1B74C236A01E0B64C636A01F079
:100750001F02012494401C400CB1012000E0002045
:1007600010BD38B5002000900024002500BF3120C6
:10077000FFF7DBFF05460098401C00900098B0F59D
:10078000A06F01D0002DF2D03120FFF7CEFF08B1CD
:10079000012400E00024204638BD01460020A14A83
:1007A000106820F0F80040EAC10010607047A049CE
:1007B00008607047024600209A4B586820F47C106D
:1007C00042EA01031843974B5860704798490866FE
:1007D000704701460020934A506820F00300084308
:1007E000506070478F48406800F00C007047014629
:1007F00000208C4A506820F0F00008435060704799
:1008000001460020874A506820F4E06008435060A9
:10081000704701460020834A506820F4605040EA47
:10082000C1005060704729B17E4A527A02437D4B25
:100830005A7204E07B4A527A82437A4B5A7270476A
:100840007B49D8310860704701460020754A5068DE
:1008500020F440400843506070470021714A203224
:100860001170704A82F82010012802D004280AD1A1
:1008700004E001216B4A2032117005E00521694A2C
:100880002032117000E000BF00BF70476949086066
:1008900070476449096A0143624A116270476549B9
:1008A00044390860704730B500210022002400233D
:1008B0005C4D6D6805F00C0121B1042905D00829B3
:1008C00023D105E05C4D056022E05B4D05601FE033
:1008D000544D6D6805F47012524D6D6805F4803406
:1008E000022505EB92421CB9544D554305600BE0BF
:1008F0004C4D6D6805F400351DB1504D55430560F4
:1009000002E04D4D5543056002E04B4D056000BFD0
:1009100000BF444D6D6805F0F0010909484D6B5C5E
:100920000568DD4045603F4D6D6805F4E061090AEA
:10093000434D6B5C4568DD4085603A4D6D6805F45C
:100940006051C90A3E4D6B5C4568DD40C560354D60
:100950006D6805F44041890B3A4D6B5CC568B5FB89
:10096000F3F5056130BD29B12E4A526902432D4B82
:100970005A6104E02B4A526982432A4B5A617047FC
:1009800029B1284A92690243264B9A6104E0254A1C
:1009900092698243234B9A61704729B1214AD269F7
:1009A0000243204BDA6104E01E4AD26982431D4BA8
:1009B000DA61704729B11B4AD2680243194BDA60E9
:1009C00004E0184AD2688243164BDA60704729B1B6
:1009D000144A12690243134B1A6104E0114A126966
:1009E0008243104B1A6170471249403908607047C2
:1009F0000F49C86470470B49C87170470948406A7D
:100A000040F0807007494862704701460020054A5F
:100A100092680A400AB1012000E0002070470149B5
:100A200088727047001002400000FFF8FFFFF6FEDA
:100A3000000042428004424200127A0000093D0058
:100A4000140000202400002010B50446FB48844216
:100A500009D101218803FFF7ADFF00214FF4804049
:100A6000FFF7A8FF32E0F648844209D1012148048B
:100A7000FFF7ADFF00214FF40030FFF7A8FF25E09E
:100A8000F048844209D101218804FFF7A0FF00212A
:100A90004FF48020FFF79BFF18E0EB48844209D118
:100AA0000121C804FFF793FF00214FF40020FFF756
:100AB0008EFF0BE0E548844208D101210805FFF7CD
:100AC00086FF00214FF48010FFF781FF10BD2DE954
:100AD000F04786B005460E460024A24600BFA14658
:100AE0000027B08900B100BF2F462C8A4CF6FF705A
:100AF0000440F08804432C82AC894EF6F310044085
:100B0000B08831890843718908430443AC81AC8AB9
:100B10004FF6FF400440B0890443AC8201A8FFF7C0
:100B2000C2FEC648874202D1DDF810A001E0DDF820
:100B30000CA0A88900F4004040B10AEBCA0000EB09
:100B40000A1031684900B0FBF1F807E00AEBCA006F
:100B500000EB0A1031688900B0FBF1F86420B8FBA3
:100B6000F0F004012009642101FB1089A88900F438
:100B7000004040B1322000EBC900B0FBF1F000F0C2
:100B80000700044308E0322000EB09106421B0FBA9
:100B9000F1F000F00F0004432C8106B0BDE8F087AF
:100BA0004FF41651016000218180C18001810C2128
:100BB000418100218181704710B502460020108AD2
:100BC0004FF2FF0318400B884C8823438C88234343
:100BD000CC8823431843108210BD0021018041803E
:100BE0008180C180704721B1828942F400528281A4
:100BF00004E082894DF6FF731A4082817047F0B598
:100C00000346002400260025002040F66A17B9425A
:100C100000D100BF1846C1F3421401F01F0601279E
:100C200007FA06F5012C01D10C3004E0022C01D1A9
:100C3000103000E014301AB107682F43076002E05B
:100C40000768AF430760F0BD1AB1838A0B43838204
:100C500002E0838A8B4383827047028A4FF6F073E7
:100C60001A400282028A0A430282704782894FF246
:100C7000FF731A40828182890A438281704721B1C1
:100C8000828942F00202828104E082894FF6FD737C
:100C90001A4082817047028A4FF6DF731A4002823F
:100CA000028A0A430282704721B1028A42F48042DA
:100CB000028204E0028A4BF6FF731A4002827047F8
:100CC000C1F308028280704701468888C0F308009B
:100CD0007047818941F0010181817047028BD2B256
:100CE0000283028B42EA012202837047028B02F4E4
:100CF0007F420283028B0A430283704721B1828ABA
:100D000042F02002828204E0828A4FF6DF731A40AA
:100D10008282704721B1828A42F01002828204E00E
:100D2000828A4FF6EF731A408282704721B1828A1D
:100D300042F00802828204E0828A4FF6F7731A407A
:100D40008282704721B1828942F40042828103E0AD
:100D50008289C2F30E028281704721B1828A42F4F5
:100D60000062828204E0828A4FF2FF731A4082821C
:100D70007047828A4FF6FB731A408282828A0A4346
:100D80008282704721B1828A42F00202828204E0AC
:100D9000828A4FF6FD731A40828270470246002015
:100DA000B1F5007F00D100BF13880B400BB10120CB
:100DB00000E00020704701F40072B2F5007F00D11E
:100DC00000BFCA430280704770B50246002400236A
:100DD0000025002040F66A16B14200D100BFC1F3E1
:100DE000421501F01F03012606FA03F3012D02D17B
:100DF0009689334006E0022D02D1168A334001E085
:100E0000968A33400C12012606FA04F41688344000
:100E100013B10CB1012000E0002070BD10B500221C
:100E2000002340F66A14A14200D100BF0A12012437
:100E30009440A3B2DC43048010BD000000380140A0
:100E40000044004000480040004C0040005000407A
:100E5000704700BFFEE700BFFEE700BFFEE700BF30
:100E6000FEE77047704770477047000000B585B0D7
:100E7000012144F20400FFF783FD4FF40070ADF848
:100E8000100018208DF8130003208DF8120004A91B
:100E90002248FFF7B9FA4FF48060ADF81000042043
:100EA0008DF8130004A91D48FFF7AEFA4FF4165051
:100EB00000900020ADF80400ADF80600ADF8080081
:100EC000ADF80C000C20ADF80A0069461448FFF795
:100ED000FEFD01211248FFF786FE05B000BD014668
:100EE0000F48008800F0800020B10D48001D0180EF
:100EF000012070470020FCE7014609B90020704737
:100F00000748008800F0200028B10548001D00882F
:100F100008700120F3E70020F1E70000000801401D
:100F20000038014008B501218820FFF729FD012084
:100F3000ADF8000010208DF8030003208DF80200AA
:100F400069460E48FFF760FA8020ADF80000694658
:100F50000B48FFF759FA4FF48070ADF8000069466E
:100F60000748FFF751FA01210448FFF7FAFA4FF456
:100F7000C0710348FFF7F5FA08BD0000000C0140FE
:100F8000001C014008B501210420FFF7F9FC0120F5
:100F9000ADF8000048208DF8030069460948FFF7C6
:100FA00033FA01211020FFF7EBFC4FF40050ADF8AD
:100FB000000048208DF8030069460348FFF724FA33
:100FC00008BD0000000801400010014010B50446B3
:100FD0000CB9002010BD2146F64800F0A8FDF9E745
:100FE00010B504462146F44800F054FD10BD0146FA
:100FF00009B900207047AFF22B000860AFF21F0064
:1010000048600120F6E708B500200090EB48007822
:1010100010B1012813D103E00120E849087000BF96
:101020006846FFF769FF50B19DF80010E14800F0F5
:1010300031FD00BF0020E149087000BF08BD01205C
:10104000FCE710B5DE48007820B1012806D0022860
:1010500018D10CE00120DA49087000BFD949D64800
:1010600000F038FD10B10220D54908700AE0D548DB
:101070000078FFF734FF28B100BF0020D049087086
:1010800000BF10BD00BF0120FBE710B504460CB93E
:10109000002010BD2146C74800F049FDF9E710B512
:1010A00004462146C44800F0F5FC10BD70B5054665
:1010B0002C4614B94FF0FF3070BD206820B10128D4
:1010C00006D0022819D10CE02068401C206000BF27
:1010D000BDA1201D01F058F808B1022020600120B8
:1010E000EAE7201D01F05BF828B900BF00BF00202F
:1010F000206000BFE0E70120DEE70120DCE710B55B
:10110000B348007810B1012813D107E0B1A1B44869
:1011100001F03AF80120AE4908700AE0B04801F049
:101120003EF828B900BF0020A949087000BF10BDD3
:1011300000BF00BF0120FAE710B5AA48007810B13F
:10114000012813D107E0A8A1A94801F01DF801204A
:10115000A44908700AE0A64801F021F828B900BFA8
:101160000020A049087000BF10BD00BF00BF0120D3
:10117000FAE710B59F48007820B1012806D0022870
:1011800017D10BE001209B49087000BF9A4800F07E
:10119000FEFC10B10220974908700AE09748FFF75B
:1011A00085FF28B900BF00209249087000BF10BD1C
:1011B00000BF00BF0120FAE710B59148007820B1C8
:1011C000012806D0022816D10BE001208C490870B6
:1011D00000BF8C4800F0DBFC10B102208849087089
:1011E00009E0FFF78CFF28B900BF00208449087090
:1011F00000BF10BD00BF00BF0120FAE710B5824854
:10120000007820B1012806D0022816D10BE0012079
:101210007D49087000BF7D4800F0B9FC10B1022084
:101220007949087009E0FFF787FF28B900BF00205F
:101230007549087000BF10BD00BF00BF0120FAE76C
:1012400010B57348007810B1012813D107E071A1DF
:10125000744800F099FF01206D49087000BF714883
:1012600000F09DFF28B900BF00206949087000BF49
:1012700010BD00BF00BF0120FAE710B56A48007832
:1012800010B1012813D107E068A16C4800F07CFF81
:1012900001206549087000BF684800F080FF28B948
:1012A00000BF00206049087000BF10BD00BF00BF34
:1012B0000120FAE710B56248007810B1012813D177
:1012C00007E060A1634800F05FFF01205C490870FF
:1012D00000BF604800F063FF28B900BF00205849F4
:1012E000087000BF10BD00BF00BF0120FAE710B5B5
:1012F0005948007820B1012806D0022816D10BE009
:1013000001205549087000BF544800F040FC10B15E
:1013100002205149087009E0FFF792FF28B900BF89
:1013200000204D49087000BF10BD00BF00BF012064
:10133000FAE710B54A48007820B1012806D0022803
:1013400016D10BE001204649087000BF454800F067
:101350001EFC10B102204249087009E0FFF7AAFF05
:1013600028B900BF00203E49087000BF10BD00BF73
:1013700000BF0120FAE710B53B48007820B10128F2
:1013800006D0022875D10BE001203749087000BF54
:10139000364800F0FCFB10B102203349087068E0C9
:1013A000FFF76BFF28B900BF00202F49087000BF6E
:1013B00010BD5DE0E4000020F40000207800002073
:1013C000790000207A0000206170706C650D0A00C1
:1013D0007B0000206F72616E67650D0A00000000DF
:1013E0007C00002084000020776F726C640D0A007E
:1013F00088000020900000203A0000201002002009
:10140000910000203C000020920000203E000020BF
:1014100093000020463120507265737365640D0A95
:1014200000000000940000209C0000205550205037
:101430007265737365640D0A00000000A00000204F
:10144000A8000020444F574E2050726573736564A6
:101450000D0A0000AC000020B40000203400002081
:10146000B500002038000020B60000203600002023
:1014700000BF00BF012010BD10B5044614B94FF0E5
:10148000FF3010BDF648007810B101280DD103E0FF
:101490000120F349087008E0F24800F086FB00BF25
:1014A0000020EF49087000BFEBE700BF0120E8E72C
:1014B00010B504460CB9012010BDEB48007810B1FE
:1014C00001280DD103E00120E749087008E0E74852
:1014D00000F06BFB00BF0020E349087000BFEBE7A2
:1014E00000BF0120E8E710B504460CB9012010BD8B
:1014F000DF48007810B101280DD103E00120DC495C
:10150000087008E0DB4800F050FB00BF0020D8491D
:10151000087000BFEBE700BF0120E8E710B5FFF758
:10152000A5FCFFF72FFDFFF7FDFC10BD10B504462D
:10153000D1480088844204DB0121D048FFF711F82C
:1015400003E00121CD48FFF70EF8CB480088401C8E
:10155000C949088008460088C0F30800088010BD0B
:1015600010B5C7480088401CC54908800846008857
:10157000C0F3090078B9C3480088401C00B2C149D3
:1015800008800846B0F9000040F2FF11884202D1FD
:101590000020BC490880BB49B1F90010FF3900297F
:1015A00005D5B849B1F90010C1F1FF0103E0B54913
:1015B000B1F90010FF3988B2FFF7B8FF10BD02463D
:1015C000082A27D2DFE802F00409260D0F111315AF
:1015D000AD48AE4B1B88184470470020AB4B1880B9
:1015E00018E00846F8E70846F6E70846F4E7084634
:1015F000F2E7A64800888030A44B1880184600887F
:10160000B0F5A05F01D3002018809F489F4B1B8836
:101610001844E1E700BF0020DEE710B59C480078E1
:1016200020B101280AD002282FD116E04CF2503008
:101630009849486101209649087000BF954800F01C
:10164000D6FA9448406938B993480088401C9249BA
:10165000088002208E49087017E08F4800880A2809
:101660000BDB00208C4908808A4800F0ACFA00BFF0
:1016700000208749087000BF10BD4CF250308549EA
:10168000486101208249087000BF00BF0120F3E7D4
:1016900070B505460C4605B114B94FF0FF3070BD6A
:1016A0007E48007810B101281AD103E001207B495F
:1016B000087000BF0020207022462946754800F0BF
:1016C00085FC28B900BF00207449087000BFE6E718
:1016D000207820B100BF00207049087000BF00BF13
:1016E00000BF0120DBE770B505460C4605B114B913
:1016F0004FF0FF3070BD6A48007820B1012808D053
:10170000022829D110E001206549087000202070CE
:1017100000BF2146284600F075FE62490860084671
:10172000006800B918E000BF5E480068406828B94A
:1017300000BF00205A49087000BF0DE059480068FA
:10174000416858480068884728B900BF00205449BC
:10175000087000BFCEE700BF00BF0120CAE770B528
:1017600004460D4604B115B94FF0FF3070BD4E4828
:10177000007810B101281AD10AE001204A49087006
:1017800000202870224649A14A4800F030FD00BFE1
:101790002946484800F03AFD40B9474800F005FAAC
:1017A00000BF00204049087000BFDFE700BF00BF56
:1017B0000120DBE770B504460D4604B115B94FF0C2
:1017C000FF3070BD3D48007810B101281AD10AE001
:1017D00001203A49087000202870224638A13A4872
:1017E00000F005FD00BF2946374800F00FFD40B965
:1017F000364800F0DAF900BF00203049087000BF19
:10180000DFE700BF00BF0120DBE770B504460D46EF
:1018100004B115B94FF0FF3070BD2D48007810B1FC
:1018200001281AD10AE001202949087000202870F7
:10183000224628A1294800F0DAFC00BF29462748A3
:1018400000F0E4FC40B9264800F0AFF900BF0020EA
:101850001F49087000BFDFE700BF00BF0120DBE7C2
:10186000B700002034000020B8000020360000201F
:10187000B900002038000020BA000020000C014010
:10188000BC000020BE0000201C020020C000002080
:10189000C200002004010020C4000020C600002077
:1018A000C7000020C8000020CC0000206170706CD0
:1018B000650000003C1600203A000020CD0000200A
:1018C0006F72616E676500004C1600203C000020BE
:1018D000CE000020776F726C640000005C16002060
:1018E0003E00002008B5FFF719FE002211464448CB
:1018F00000F042F900221146424800F03DF9002272
:101900001146414800F038F9002211463F4800F0E6
:1019100033F9002211463E4800F02EF9002211460C
:101920003C4800F029F9C8223B493C4800F094F8B3
:1019300010223B493B4800F08FF83B4801683B4888
:10194000884739483A4902693A4890473648AFF2E1
:10195000F1110269384890473348384902693848DC
:1019600090473148AFF281210269364890472E48AE
:10197000AFF2E3210269344890472B482D49826831
:101980002A48904728482F49826828489047264887
:101990002949826825489047234829498268234875
:1019A00090472A48FFF723FB01242848AFF2F13380
:1019B000802221460090264800F022F91748234B48
:1019C00000901A4806C8234800F0BBFC17E0FFF758
:1019D000C7FDFFF718FBFFF734FB134841681D48AC
:1019E0008847FFF784FCFFF7A4FCFFF7C4FCFFF770
:1019F000C0FBFFF7E1FBFFF701FCFFF70EFEE6E798
:101A00003400002036000020380000203A0000207A
:101A10003C0000203E00002038010020E4000020AF
:101A200000020020F40000202025000870000020A3
:101A3000B517000848000020500000200B180008CF
:101A400058000020600000206800002040000020B6
:101A5000040100201C16002003460BB101B10AB995
:101A6000002070470020D880188158819A80196022
:101A70009881D8810120F4E7014609B90120704717
:101A8000C8880A89904203D1488908B90120F6E73D
:101A90000020F4E702460AB900207047D088138975
:101AA000984203D1508908B10020F6E710681389E5
:101AB000C1545089401C50811089401C1081D0892C
:101AC000401CD08190881389984201DC002010814D
:101AD0000120E2E7024602B109B900207047D08830
:101AE0001389984203D1508908B90020F6E710689D
:101AF000D388C05C08705089401E5081D088401C3B
:101B0000D0809088D388984201DC0020D080D08893
:101B100090815089D0810120E0E7014609B9002079
:101B200070474889C881C88888810120F8E7024643
:101B300002B109B900207047D08908B90020FAE73E
:101B400010689389C05C08709089401C90819089CE
:101B50009388984201DB00209081D089401ED0817B
:101B60000120E8E7014609B9002070478889C8804C
:101B7000C88948810120F8E700B9704712B10023F5
:101B8000037001E001230370417000BFF5E70146D7
:101B900009B900207047487828B1087808B10020BA
:101BA00048700120F6E70020F4E700B970470121F2
:101BB000417000BFFAE700B97047417809B10021D0
:101BC000417000BFF8E710B504460CB9002010BD05
:101BD000A01CFFF7EAFF0120F9E710B504460CB995
:101BE000002010BD201DFFF7E0FF0120F9E741694B
:101BF00011B90021416102E04169491E416170470C
:101C00002DE9F0410446884615461E46069F0CB154
:101C100006B117B90020BDE8F081B5F5806F03D09B
:101C2000802D01D00020F6E7B5F5806F03D10220AA
:101C300084F8280002E0012084F8280084F8078056
:101C40002580A6603868E06079682161002211462D
:101C5000A01CFFF791FF00221146201DFFF78CFF0B
:101C60000020A08560850121202001550020A0765C
:101C7000A0760021A18384F82E00302001552F206A
:101C8000015531200155322001550120C3E70822BA
:101C900080EA012000BF00F400432BB141F2210390
:101CA00083EA400398B203E04FF6FF7303EA400073
:101CB000531EDBB21A1EEED1704738B504460D46EE
:101CC00005B12CB9FF213320015594F9330038BDFB
:101CD00094F82E0010B101281ED105E00020608587
:101CE000012084F82E0000BF6846E168884768B18B
:101CF0009DF80000287000BF002084F82E0000BF6F
:101D000000213320015594F93300E0E7012133200D
:101D1000015594F93300DAE702213320015594F993
:101D20003300D4E738B504460D4604B115B94FF079
:101D3000FF3038BD2F20005D20B1012806D00228D9
:101D400048D133E001212F20015500BF69462046CC
:101D5000FFF7B3FF332108553320005DB0B99DF87C
:101D60000000A28D616A8854E07930B128889DF81E
:101D70000010FFF78CFF288004E028889DF80010F1
:101D800008442880A08D401CA0850EE03320005D13
:101D900001280AD100BF00212F20015500BF0121D9
:101DA0003320015594F93300C3E713E0A08D218857
:101DB00088420BDB0020A08500BF00212F200155A9
:101DC00000BF3320015594F93300B2E701212F20E1
:101DD000015500BF00BF04213320015594F93300A1
:101DE000A7E702462AB9FF233320835492F9330030
:101DF00070473020805C20B1012806D002281DD118
:101E000015E001233020835400BF9176D07918B1BA
:101E100002233020835409E000BF00233020835484
:101E200000BF3320835492F93300E1E706E0D17616
:101E300000233320835492F93300D9E700BF0423F1
:101E40003320835492F93300D2E770B504460D462F
:101E50002CB9FF213320015594F9330070BD312096
:101E6000005D06282AD2DFE800F003072A405570FB
:101E700001213120015500BF94F82800A84208D163
:101E80000020A268616A90476062022131200155FA
:101E900014E0042D12D10121202001550120A26857
:101EA000616A9047606200BF00213120015500BF88
:101EB00006213320015594F93300CFE77FE0A57761
:101EC000A17F2020005D401E81420AD100BF002179
:101ED0003120015500BF0A213320015594F9330008
:101EE000BCE703213120015569E0E577E07FA17F60
:101EF0000844FF280AD000BF00213120015500BF4F
:101F000009213320015594F93300A7E7042131203A
:101F1000015554E0A18D606A4554E07928B1A08B49
:101F20002946FFF7B4FEA08302E0A08B2844A083DB
:101F3000A08D401CA085A08D2188884204DB002054
:101F4000A08505213120015539E029462046FFF7BB
:101F500048FF332108553320005D10BBE07988B17C
:101F6000E07EA17E00EB0121A08B814219D000BF51
:101F700000213120015500BF0B213320015594F978
:101F800033006BE7A08BA17E88420AD000BF0021FE
:101F90003120015500BF0B213320015594F9330046
:101FA0005CE70021A1832020005D401CC1B22020FD
:101FB000015503213320015594F933004EE700BF4A
:101FC00004213320015594F9330047E7F8B504465E
:101FD0000E46154614B94FF0FF30F8BD3220005DB3
:101FE000052872D2DFE800F0030A1842B700042186
:101FF0003320015501213220015500BF012120204D
:102000000155022132200155E07910B1432020769C
:1020100001E01520207600BF201DFFF7B8FD38B184
:102020000121202001550D21332001551820207653
:10203000207E21698847C0B13320005D0D2806D17C
:1020400000BF00213220015500BF0020C5E733202A
:10205000005D062806D100BF00213220015500BFD7
:102060000020BAE703213220015500BF0020A085DF
:10207000A0760021E176A18300BF3120015500BF89
:1020800000BF3020015500BF5FE09DF800102046E2
:10209000FFF7DBFE3321085594F93300C01E0B28EF
:1020A00052D2DFE800F00651511351202D3A405131
:1020B0004B000720A268616A904760620620207684
:1020C000022132200155002087E75AE00120A26852
:1020D000616A904760620620207601202870022104
:1020E0003220015530E00220A268616A90476062A8
:1020F000182020760221322001550120287023E08B
:102100000620A268616A904760621520207602214D
:10211000322001550120287016E006202076022189
:102120003220015510E00520A268616A9047606284
:102130001520207602213220015505E01820207656
:1021400002213220015500BF00BF6846E168884780
:1021500000289AD115E0A079401CA071A07905282B
:102160000BDB0420A268616A9047606200BF002117
:102170003220015500BF481E2FE7022132200155B1
:1021800000BF00BF012028E70246134603B109B98A
:10219000002070470020187059600120F9E770B5E1
:1021A00005462C4614B94FF0FF3070BD207820B1A1
:1021B000012805D0022817D10BE00120207000BFB4
:1021C0006068007820B900BF0020207000BFECE7F5
:1021D00000BF61680878FEF782FE20B16068401C8D
:1021E00060600120207000BF00BF0120DDE710B556
:1021F00003460C46194609B104B10AB9002010BDC6
:10220000002008724C60CA600120F8E7F8B5064665
:102210000D4634461CB915B94FF0FF30F8BD207893
:1022200010B1012828D105E000202072287001207B
:10223000207000BF15E0217A6068405C9DF80010B6
:10224000884202D00120287010E0207A401C2072C1
:10225000217A6068405C20B900BF0020207000BF78
:10226000DCE76846E16888470028E4D100BF00BF8A
:102270000020207000BF00BF00BF0120CEE7024653
:102280001146002309B9002070474B68486810B90F
:102290000868486002E04868406848601846F3E70C
:1022A00010B503461A46002402B109B9002010BD3A
:1022B000106828B911605160002048600120F6E7DD
:1022C000546800E0646860680028FBD16160486081
:1022D000506800B951600120E9E730B50446224654
:1022E000002502B109B9002030BD1368156801E06E
:1022F0001D465B680BB18B42FAD16BB150688842C6
:1023000001D1486850601068884201D14868106067
:10231000486868600846E7E70020E5E7024613469C
:1023200003B109B90020704719600120FBE701469D
:102330000A460AB900207047002010605060012052
:10234000F9E72DE9F04106461D46069F344614B9CB
:102350000020BDE8F0810020206005B9F9E7201DCC
:10236000FFF7E5FF2868A0616868E06127613046F3
:10237000EFE77CB505462C4614B94FF0FF307CBD25
:10238000E668206820B1012809D0022838D11CE075
:102390002068401C206001202075206000BF201DA7
:1023A000FFF76DFFE060E06858B9207D18B101A922
:1023B0002069FFF78FFB00BF00BF0020206000BF37
:1023C000DDE7022020600120D9E72069FFF7A5FBA7
:1023D00000200090A06969463268904740B92069A2
:1023E000FFF7C0FB00BF00BF0020206000BFC6E7B2
:1023F000207D9DF800100840207501202060BEE778
:102400000120BCE770B505460C462E48007830B177
:1024100001280ED002281ED0032850D146E001200A
:102420002849087028490870002028490880207031
:1024300000BF26480088032809D32348007808B144
:102440000120207000BF00201E49087002E0022019
:102450001C49087033E01E481C4A128850F832109C
:102460002A461C48FFF7C3FE28B900BF00201549C3
:10247000087000BF23E018491648FFF7C7FE50B99F
:1024800000BF00200F49087000BF11480F4909889C
:1024900000EBC10070BD0C4800780F490978084076
:1024A0000949087003200749087000BF07480088E1
:1024B000401C0649088001200249087000BF00BF87
:1024C0000020E7E7DC000020E0000020DE00002024
:1024D000302500086C160020E1000020064C074D56
:1024E00006E0E06840F0010394E8070098471034E4
:1024F000AC42F6D3FDF720FE482500086825000809
:1025000002E008C8121F08C1002AFAD170477047BC
:10251000002001E001C1121F002AFBD1704700001A
:1025200073230008A1220008DB2200081D230008F5
:10253000D000002079140008D4000020B114000855
:10254000D8000020E71400086825000800000020DB
:10255000E4000000002500084C260008E4000020EC
:102560009C1900001025000800A24A040000000089
:102570000000000001020304060708090000000033
:102580000102030401020304060708090204060805
:102590001B4F50001B5B41001B5B42000000000012
:1025A000000000000000000000000000000000002B
:1025B000000000000000000000000000000000001B
:1025C000000000000000000000000000000000000B
:1025D00000000000000000000000000000000000FB
:1025E00000000000000000000000000000000000EB
:1025F00000000000000000000000000000000000DB
:1026000000000000000000000000000000000000CA
:1026100000000000000000000000000000000000BA
:10262000000000000000FF000000000000000000AB
:1026300000000000000000001B4F50001B5B410029
:0C2640001B5B42000000000000000000D6
:0400000508000131BD
:00000001FF
